{
  "_format": "hh3-artifact-1",
  "contractName": "GrantPlatform",
  "sourceName": "contracts/GrantPlatform.sol",
  "abi": [
    {
      "inputs": [],
      "stateMutability": "nonpayable",
      "type": "constructor"
    },
    {
      "inputs": [
        {
          "internalType": "address",
          "name": "target",
          "type": "address"
        }
      ],
      "name": "AddressEmptyCode",
      "type": "error"
    },
    {
      "inputs": [
        {
          "internalType": "address",
          "name": "implementation",
          "type": "address"
        }
      ],
      "name": "ERC1967InvalidImplementation",
      "type": "error"
    },
    {
      "inputs": [],
      "name": "ERC1967NonPayable",
      "type": "error"
    },
    {
      "inputs": [],
      "name": "FailedCall",
      "type": "error"
    },
    {
      "inputs": [],
      "name": "InvalidInitialization",
      "type": "error"
    },
    {
      "inputs": [],
      "name": "NotInitializing",
      "type": "error"
    },
    {
      "inputs": [],
      "name": "ReentrancyGuardReentrantCall",
      "type": "error"
    },
    {
      "inputs": [],
      "name": "UUPSUnauthorizedCallContext",
      "type": "error"
    },
    {
      "inputs": [
        {
          "internalType": "bytes32",
          "name": "slot",
          "type": "bytes32"
        }
      ],
      "name": "UUPSUnsupportedProxiableUUID",
      "type": "error"
    },
    {
      "anonymous": false,
      "inputs": [
        {
          "indexed": true,
          "internalType": "string",
          "name": "galaId",
          "type": "string"
        },
        {
          "indexed": true,
          "internalType": "address",
          "name": "organiser",
          "type": "address"
        },
        {
          "indexed": false,
          "internalType": "uint256",
          "name": "ticketPrice",
          "type": "uint256"
        },
        {
          "indexed": false,
          "internalType": "uint256",
          "name": "totalPrize",
          "type": "uint256"
        },
        {
          "indexed": false,
          "internalType": "string[]",
          "name": "grantIds",
          "type": "string[]"
        },
        {
          "indexed": false,
          "internalType": "uint256[]",
          "name": "grantPrizes",
          "type": "uint256[]"
        },
        {
          "indexed": false,
          "internalType": "uint256[]",
          "name": "grantDeadlines",
          "type": "uint256[]"
        }
      ],
      "name": "GalaPublished",
      "type": "event"
    },
    {
      "anonymous": false,
      "inputs": [
        {
          "indexed": true,
          "internalType": "string",
          "name": "grantId",
          "type": "string"
        },
        {
          "indexed": true,
          "internalType": "string",
          "name": "galaId",
          "type": "string"
        },
        {
          "indexed": true,
          "internalType": "address",
          "name": "applicant",
          "type": "address"
        }
      ],
      "name": "GrantApplied",
      "type": "event"
    },
    {
      "anonymous": false,
      "inputs": [
        {
          "indexed": false,
          "internalType": "uint64",
          "name": "version",
          "type": "uint64"
        }
      ],
      "name": "Initialized",
      "type": "event"
    },
    {
      "anonymous": false,
      "inputs": [
        {
          "indexed": false,
          "internalType": "string",
          "name": "planId",
          "type": "string"
        },
        {
          "indexed": false,
          "internalType": "uint256",
          "name": "fee",
          "type": "uint256"
        },
        {
          "indexed": false,
          "internalType": "uint256",
          "name": "duration",
          "type": "uint256"
        }
      ],
      "name": "PlanAdded",
      "type": "event"
    },
    {
      "anonymous": false,
      "inputs": [
        {
          "indexed": true,
          "internalType": "address",
          "name": "user",
          "type": "address"
        },
        {
          "indexed": false,
          "internalType": "string",
          "name": "planId",
          "type": "string"
        },
        {
          "indexed": false,
          "internalType": "uint256",
          "name": "expiresAt",
          "type": "uint256"
        }
      ],
      "name": "Subscribed",
      "type": "event"
    },
    {
      "anonymous": false,
      "inputs": [
        {
          "indexed": true,
          "internalType": "address",
          "name": "user",
          "type": "address"
        }
      ],
      "name": "SubscriptionCancelled",
      "type": "event"
    },
    {
      "anonymous": false,
      "inputs": [
        {
          "indexed": true,
          "internalType": "address",
          "name": "user",
          "type": "address"
        },
        {
          "indexed": false,
          "internalType": "uint256",
          "name": "newExpiresAt",
          "type": "uint256"
        }
      ],
      "name": "SubscriptionRenewed",
      "type": "event"
    },
    {
      "anonymous": false,
      "inputs": [
        {
          "indexed": true,
          "internalType": "string",
          "name": "galaId",
          "type": "string"
        },
        {
          "indexed": true,
          "internalType": "address",
          "name": "attendee",
          "type": "address"
        },
        {
          "indexed": false,
          "internalType": "address",
          "name": "organiser",
          "type": "address"
        },
        {
          "indexed": false,
          "internalType": "uint256",
          "name": "amount",
          "type": "uint256"
        }
      ],
      "name": "TicketPurchased",
      "type": "event"
    },
    {
      "anonymous": false,
      "inputs": [
        {
          "indexed": true,
          "internalType": "address",
          "name": "implementation",
          "type": "address"
        }
      ],
      "name": "Upgraded",
      "type": "event"
    },
    {
      "inputs": [],
      "name": "UPGRADE_INTERFACE_VERSION",
      "outputs": [
        {
          "internalType": "string",
          "name": "",
          "type": "string"
        }
      ],
      "stateMutability": "view",
      "type": "function"
    },
    {
      "inputs": [
        {
          "internalType": "string",
          "name": "planId",
          "type": "string"
        },
        {
          "internalType": "uint256",
          "name": "fee",
          "type": "uint256"
        },
        {
          "internalType": "uint256",
          "name": "duration",
          "type": "uint256"
        }
      ],
      "name": "addPlan",
      "outputs": [],
      "stateMutability": "nonpayable",
      "type": "function"
    },
    {
      "inputs": [
        {
          "internalType": "string",
          "name": "galaId",
          "type": "string"
        },
        {
          "internalType": "address",
          "name": "organiserWallet",
          "type": "address"
        }
      ],
      "name": "applyForGala",
      "outputs": [],
      "stateMutability": "nonpayable",
      "type": "function"
    },
    {
      "inputs": [
        {
          "internalType": "string",
          "name": "galaId",
          "type": "string"
        },
        {
          "internalType": "string",
          "name": "grantId",
          "type": "string"
        }
      ],
      "name": "applyForGrant",
      "outputs": [],
      "stateMutability": "nonpayable",
      "type": "function"
    },
    {
      "inputs": [],
      "name": "cancelSubscription",
      "outputs": [],
      "stateMutability": "nonpayable",
      "type": "function"
    },
    {
      "inputs": [
        {
          "internalType": "string",
          "name": "grantId",
          "type": "string"
        },
        {
          "internalType": "address",
          "name": "user",
          "type": "address"
        }
      ],
      "name": "checkGrantApplication",
      "outputs": [
        {
          "internalType": "bool",
          "name": "",
          "type": "bool"
        }
      ],
      "stateMutability": "view",
      "type": "function"
    },
    {
      "inputs": [
        {
          "internalType": "string",
          "name": "galaId",
          "type": "string"
        },
        {
          "internalType": "address",
          "name": "user",
          "type": "address"
        }
      ],
      "name": "checkTicket",
      "outputs": [
        {
          "internalType": "bool",
          "name": "",
          "type": "bool"
        }
      ],
      "stateMutability": "view",
      "type": "function"
    },
    {
      "inputs": [
        {
          "internalType": "bytes32",
          "name": "",
          "type": "bytes32"
        }
      ],
      "name": "escrow",
      "outputs": [
        {
          "internalType": "uint256",
          "name": "",
          "type": "uint256"
        }
      ],
      "stateMutability": "view",
      "type": "function"
    },
    {
      "inputs": [
        {
          "internalType": "string",
          "name": "grantId",
          "type": "string"
        }
      ],
      "name": "escrowBalance",
      "outputs": [
        {
          "internalType": "uint256",
          "name": "",
          "type": "uint256"
        }
      ],
      "stateMutability": "view",
      "type": "function"
    },
    {
      "inputs": [
        {
          "internalType": "bytes32",
          "name": "",
          "type": "bytes32"
        },
        {
          "internalType": "uint256",
          "name": "",
          "type": "uint256"
        }
      ],
      "name": "galaGrants",
      "outputs": [
        {
          "internalType": "bytes32",
          "name": "",
          "type": "bytes32"
        }
      ],
      "stateMutability": "view",
      "type": "function"
    },
    {
      "inputs": [
        {
          "internalType": "bytes32",
          "name": "",
          "type": "bytes32"
        }
      ],
      "name": "galas",
      "outputs": [
        {
          "internalType": "bytes32",
          "name": "galaId",
          "type": "bytes32"
        },
        {
          "internalType": "address",
          "name": "organiser",
          "type": "address"
        },
        {
          "internalType": "uint256",
          "name": "ticketPrice",
          "type": "uint256"
        },
        {
          "internalType": "uint256",
          "name": "galaPrize",
          "type": "uint256"
        },
        {
          "internalType": "bool",
          "name": "published",
          "type": "bool"
        }
      ],
      "stateMutability": "view",
      "type": "function"
    },
    {
      "inputs": [
        {
          "internalType": "string",
          "name": "galaId",
          "type": "string"
        }
      ],
      "name": "getGalaGrants",
      "outputs": [
        {
          "internalType": "bytes32[]",
          "name": "",
          "type": "bytes32[]"
        }
      ],
      "stateMutability": "view",
      "type": "function"
    },
    {
      "inputs": [
        {
          "internalType": "bytes32",
          "name": "",
          "type": "bytes32"
        }
      ],
      "name": "grants",
      "outputs": [
        {
          "internalType": "bytes32",
          "name": "grantId",
          "type": "bytes32"
        },
        {
          "internalType": "bytes32",
          "name": "galaId",
          "type": "bytes32"
        },
        {
          "internalType": "uint256",
          "name": "deadline",
          "type": "uint256"
        },
        {
          "internalType": "uint256",
          "name": "prize",
          "type": "uint256"
        },
        {
          "internalType": "bool",
          "name": "released",
          "type": "bool"
        }
      ],
      "stateMutability": "view",
      "type": "function"
    },
    {
      "inputs": [
        {
          "internalType": "bytes32",
          "name": "",
          "type": "bytes32"
        },
        {
          "internalType": "address",
          "name": "",
          "type": "address"
        }
      ],
      "name": "hasApplied",
      "outputs": [
        {
          "internalType": "bool",
          "name": "",
          "type": "bool"
        }
      ],
      "stateMutability": "view",
      "type": "function"
    },
    {
      "inputs": [
        {
          "internalType": "bytes32",
          "name": "",
          "type": "bytes32"
        },
        {
          "internalType": "address",
          "name": "",
          "type": "address"
        }
      ],
      "name": "hasTicket",
      "outputs": [
        {
          "internalType": "bool",
          "name": "",
          "type": "bool"
        }
      ],
      "stateMutability": "view",
      "type": "function"
    },
    {
      "inputs": [
        {
          "internalType": "address",
          "name": "_usdc",
          "type": "address"
        },
        {
          "internalType": "address",
          "name": "_treasury",
          "type": "address"
        }
      ],
      "name": "initialize",
      "outputs": [],
      "stateMutability": "nonpayable",
      "type": "function"
    },
    {
      "inputs": [
        {
          "internalType": "address",
          "name": "user",
          "type": "address"
        }
      ],
      "name": "isSubscribed",
      "outputs": [
        {
          "internalType": "bool",
          "name": "",
          "type": "bool"
        }
      ],
      "stateMutability": "view",
      "type": "function"
    },
    {
      "inputs": [],
      "name": "owner",
      "outputs": [
        {
          "internalType": "address",
          "name": "",
          "type": "address"
        }
      ],
      "stateMutability": "view",
      "type": "function"
    },
    {
      "inputs": [
        {
          "internalType": "bytes32",
          "name": "",
          "type": "bytes32"
        }
      ],
      "name": "plans",
      "outputs": [
        {
          "internalType": "uint256",
          "name": "fee",
          "type": "uint256"
        },
        {
          "internalType": "uint256",
          "name": "duration",
          "type": "uint256"
        },
        {
          "internalType": "bool",
          "name": "active_plan",
          "type": "bool"
        }
      ],
      "stateMutability": "view",
      "type": "function"
    },
    {
      "inputs": [],
      "name": "proxiableUUID",
      "outputs": [
        {
          "internalType": "bytes32",
          "name": "",
          "type": "bytes32"
        }
      ],
      "stateMutability": "view",
      "type": "function"
    },
    {
      "inputs": [
        {
          "internalType": "string",
          "name": "galaId",
          "type": "string"
        },
        {
          "internalType": "string[]",
          "name": "grantIds",
          "type": "string[]"
        },
        {
          "internalType": "uint256",
          "name": "ticketPrice",
          "type": "uint256"
        },
        {
          "internalType": "uint256[]",
          "name": "grantPrizes",
          "type": "uint256[]"
        },
        {
          "internalType": "uint256[][]",
          "name": "grantWinners",
          "type": "uint256[][]"
        },
        {
          "internalType": "address",
          "name": "organiserWallet",
          "type": "address"
        },
        {
          "internalType": "uint256[]",
          "name": "grantDeadlines",
          "type": "uint256[]"
        }
      ],
      "name": "publishGala",
      "outputs": [],
      "stateMutability": "nonpayable",
      "type": "function"
    },
    {
      "inputs": [
        {
          "internalType": "string",
          "name": "grantId",
          "type": "string"
        },
        {
          "internalType": "address",
          "name": "organiserWallet",
          "type": "address"
        },
        {
          "internalType": "address[]",
          "name": "winners",
          "type": "address[]"
        }
      ],
      "name": "releaseGrant",
      "outputs": [],
      "stateMutability": "nonpayable",
      "type": "function"
    },
    {
      "inputs": [
        {
          "internalType": "address",
          "name": "user",
          "type": "address"
        }
      ],
      "name": "renewSubscription",
      "outputs": [],
      "stateMutability": "nonpayable",
      "type": "function"
    },
    {
      "inputs": [
        {
          "internalType": "string",
          "name": "planId",
          "type": "string"
        }
      ],
      "name": "subscribe",
      "outputs": [],
      "stateMutability": "nonpayable",
      "type": "function"
    },
    {
      "inputs": [
        {
          "internalType": "address",
          "name": "",
          "type": "address"
        }
      ],
      "name": "subscriptions",
      "outputs": [
        {
          "internalType": "bytes32",
          "name": "planId",
          "type": "bytes32"
        },
        {
          "internalType": "bool",
          "name": "autopay",
          "type": "bool"
        },
        {
          "internalType": "uint256",
          "name": "expiresAt",
          "type": "uint256"
        },
        {
          "internalType": "bool",
          "name": "active",
          "type": "bool"
        }
      ],
      "stateMutability": "view",
      "type": "function"
    },
    {
      "inputs": [],
      "name": "treasury",
      "outputs": [
        {
          "internalType": "address",
          "name": "",
          "type": "address"
        }
      ],
      "stateMutability": "view",
      "type": "function"
    },
    {
      "inputs": [
        {
          "internalType": "address",
          "name": "newImplementation",
          "type": "address"
        },
        {
          "internalType": "bytes",
          "name": "data",
          "type": "bytes"
        }
      ],
      "name": "upgradeToAndCall",
      "outputs": [],
      "stateMutability": "payable",
      "type": "function"
    },
    {
      "inputs": [],
      "name": "usdc",
      "outputs": [
        {
          "internalType": "contract IERC20",
          "name": "",
          "type": "address"
        }
      ],
      "stateMutability": "view",
      "type": "function"
    }
  ],
  "bytecode": "0x60a080604052346100e6573060805260017f9b779b17422d0df92223018b32b4d1fa46e071723d6817e2486d003becc55f00555f5160206135c05f395f51905f525460ff8160401c166100d7576002600160401b03196001600160401b03821601610084575b6040516134d590816100eb8239608051818181611b5701526121100152f35b6001600160401b0319166001600160401b039081175f5160206135c05f395f51905f525581527fc7f505b2f371ae2175ee4913f4499e1f2633a7b5936321eed1cdaeb6115181d290602090a15f80610065565b63f92ee8a960e01b5f5260045ffd5b5f80fdfe60806040526004361015610011575f80fd5b5f5f3560e01c806319224abf14612e465780632099f07614612ddf57806324e9edb014612cb257806331a5ec08146129295780633845906f1461283c5780633e413bee1461281557806340ec5c5d146127cb578063485cc955146125aa5780634b601340146122b55780634f1ef286146120bf578063507e788814611bab57806352d1902d14611b445780635607322414610dd757806361d027b314610dae5780638da5cb5b14610d85578063963eadaf14610d3b578063a7e7503214610d11578063aa4f265314610cca578063ad3cb1cc14610c7d578063b92ae87c14610c24578063bb5ad7b314610bbd578063c1cf9d2b14610b4b578063ce6304db146106e5578063d982b9d214610682578063de1f898014610626578063df05ae0c146105dd578063e02eb109146101b65763f046395a1461014e575f80fd5b346101b35760203660031901126101b3576080906040906001600160a01b03610175613007565b16815260046020522080549060ff6001820154169060ff60036002830154920154169160405193845215156020840152604083015215156060820152f35b80fd5b50346101b35760203660031901126101b3576101d0613007565b6101d86132bb565b81546001546001600160a01b038381165f90815260046020526040902092811693911660ff600384015416156105895760028301928354610e0f198101908111610575574210610526575485526003602090815260408087209051636eb1769f60e11b81526001600160a01b038516600482015230602482015290939181604481895afa90811561051b5787916104e9575b508354809110610499576040516370a0823160e01b81526001600160a01b038316600482018190529690602081602481855afa801561048e5783918a91610455575b5010610407576040516323b872dd60e01b81526001600160a01b03938416600482015293909216602484015260448301526020908290606490829089905af19081156103fc5785916103cd575b5015610352578161033460209260017f0e3bc79b6527253ae333c773455df588f62bcc1ad9726d42dbdc179356232a6095549101549061330b565b809155604051908152a260015f5160206134405f395f51905f525580f35b60405162461bcd60e51b815260206004820152604760248201527f4772616e74506c6174666f726d3a2072656e6577616c20666565207472616e7360448201527f666572206661696c6564203a20636865636b20616c6c6f77616e6365206f722060648201526662616c616e636560c81b608482015260a490fd5b6103ef915060203d6020116103f5575b6103e781836130d9565b8101906132f3565b5f6102f9565b503d6103dd565b6040513d87823e3d90fd5b60405162461bcd60e51b815260206004820152603360248201525f5160206134005f395f51905f526044820152726e636520666f722072656e6577616c2066656560681b6064820152608490fd5b9150506020813d602011610486575b81610471602093836130d9565b81010312610482578290515f6102ac565b5f80fd5b3d9150610464565b6040513d8b823e3d90fd5b60405162461bcd60e51b815260206004820152603560248201525f5160206134605f395f51905f5260448201527477616e636520666f722072656e6577616c2066656560581b6064820152608490fd5b90506020813d602011610513575b81610504602093836130d9565b8101031261048257515f61026a565b3d91506104f7565b6040513d89823e3d90fd5b60405162461bcd60e51b815260206004820152602160248201527f4772616e74506c6174666f726d3a20746f6f206561726c7920746f2072656e656044820152607760f81b6064820152608490fd5b634e487b7160e01b87526011600452602487fd5b60405162461bcd60e51b815260206004820152602660248201527f4772616e74506c6174666f726d3a20737562736372697074696f6e206e6f742060448201526561637469766560d01b6064820152608490fd5b50346101b35760403660031901126101b357602435906004358152600a602052604081209081548310156101b35760206106178484613163565b90549060031b1c604051908152f35b50346101b35760203660031901126101b357604060a0916004358152600660205220805490600181015490600281015460ff60056003840154930154169260405194855260208501526040840152606083015215156080820152f35b50346101b35760203660031901126101b357604060a0916004358152600560205220805490600180841b0360018201541690600281015460ff60046003840154930154169260405194855260208501526040840152606083015215156080820152f35b50346101b3576106f43661304d565b9190338452600460205261071a6040852060ff6003820154169081610b3c575b506131ac565b6107226132bb565b60018060a01b03845416916040516020810190838383376107566020828681018a838201520301601f1981018352826130d9565b5190208086526005602052604086209460ff60048701541615610af75760018601546001600160a01b03828116979116879003610aa857828852600760209081526040808a20335f908152925290205460ff16610a535760020154604051636eb1769f60e11b8152336004820152306024820152909590602081604481855afa801561048e5787918a91610a1e575b50106109d3576040516370a0823160e01b8152336004820152602081602481855afa801561048e5787918a9161099e575b5010610955576040516323b872dd60e01b81523360048201526001600160a01b0392909216602483015260448201869052602090829060649082908b905af190811561051b578791610936575b50156108e3578552600760209081526040808720335f908152925290819020805460ff19166001179055519182918190833781015f81520390209060405192835260208301527fde0ded16f5710d01be252921f2d53e4857a59c354700b9f754cb911e757868f060403393a360015f5160206134405f395f51905f525580f35b60405162461bcd60e51b815260206004820152602560248201527f4772616e74506c6174666f726d3a207469636b6574207472616e736665722066604482015264185a5b195960da1b6064820152608490fd5b61094f915060203d6020116103f5576103e781836130d9565b5f610863565b60405162461bcd60e51b815260206004820152602e60248201525f5160206134005f395f51905f5260448201526d1b98d948199bdc881d1a58dad95d60921b6064820152608490fd5b9150506020813d6020116109cb575b816109ba602093836130d9565b81010312610482578690515f610816565b3d91506109ad565b60405162461bcd60e51b815260206004820152603060248201525f5160206134605f395f51905f5260448201526f1dd85b98d948199bdc881d1a58dad95d60821b6064820152608490fd5b9150506020813d602011610a4b575b81610a3a602093836130d9565b81010312610482578690515f6107e5565b3d9150610a2d565b60405162461bcd60e51b815260206004820152602760248201527f4772616e74506c6174666f726d3a20616c726561647920707572636861736564604482015266081d1a58dad95d60ca1b6064820152608490fd5b60405162461bcd60e51b815260206004820152602160248201527f4772616e74506c6174666f726d3a206f7267616e69736572206d69736d6174636044820152600d60fb1b6064820152608490fd5b60405162461bcd60e51b815260206004820152601d60248201527f4772616e74506c6174666f726d3a2067616c61206e6f7420666f756e640000006044820152606490fd5b6002915001544211155f610714565b50346101b35760203660031901126101b3576004356001600160401b038111610bb957602091610b816040923690600401612fc4565b610ba6858551838194838301968737810186838201520301601f1981018352826130d9565b5190208152600983522054604051908152f35b5080fd5b50346101b3576040610bce3661304d565b939190610bf760208551838194838301968737810186838201520301601f1981018352826130d9565b51902081526008602052209060018060a01b03165f52602052602060ff60405f2054166040519015158152f35b50346101b35760203660031901126101b3576020906040906001600160a01b03610c4c613007565b168152600483522060ff6003820154169081610c6e575b506040519015158152f35b6002915001544211155f610c63565b50346101b357806003193601126101b35750610cc6604051610ca06040826130d9565b60058152640352e302e360dc1b602082015260405191829160208352602083019061313f565b0390f35b50346101b35760203660031901126101b3576040606091600435815260036020522080549060ff600260018301549201541690604051928352602083015215156040820152f35b50346101b35760203660031901126101b35760406020916004358152600983522054604051908152f35b50346101b35760403660031901126101b3576040610d57612ff1565b9160043581526008602052209060018060a01b03165f52602052602060ff60405f2054166040519015158152f35b50346101b357806003193601126101b3576002546040516001600160a01b039091168152602090f35b50346101b357806003193601126101b3576001546040516001600160a01b039091168152602090f35b50346101b35760e03660031901126101b3576004356001600160401b038111610bb957610e08903690600401612fc4565b6024356001600160401b038111611b4057610e2790369060040161301d565b9290916064356001600160401b038111611b3c57610e4990369060040161301d565b6084949194356001600160401b038111611b3857610e6b90369060040161301d565b60a435976001600160a01b03891697919691888a03611b345760c435916001600160401b038311611b3057610ea7610ec693369060040161301d565b939094610eb26132bb565b60405199610ebf8b6130be565b36916130fa565b8852610ed181613258565b96610edf60405198896130d9565b818852602088019160051b810190368211611b2c5780925b828410611aec5750505050610f1e906020880196875260408801956044358752369161326f565b9660608701978852610f2f81613258565b93610f3d60405195866130d9565b818552602085019160051b810190368211611ae85780925b828410611aa8575050505090610f739160808701938452369161326f565b9160a0850192835260018060a01b038954169085515115611a635784515115611a1e57845151875151036119c4578451518351510361196b578451518451510361190e578051156118b95785518a610fee602060405180938280830196805191829101885e820190838201520301601f1981018352826130d9565b519020808b52600560205260408b20600101549096906001600160a01b0316611869578a98895b875180518c10156112c2578b61102a9161332c565b51511561127d5761103c8b8b5161332c565b511561122957600461104f8c885161332c565b5151036111cf57426110628c895161332c565b511115611174578c600160406110798e8c5161332c565b5181516110a56020828180820195805191829101875e810188838201520301601f1981018352826130d9565b5190209283815260066020522001546111305760408e8b8152600a60205220805490600160401b82101561111b578f90926110eb83611113956001809896018155613163565b81939154915060031b91821b915f19901b191617905561110c8d8d5161332c565b519061330b565b9a0199611015565b50634e487b7160e01b8f52604160045260248ffd5b606460405162461bcd60e51b815260206004820152602060248201527f4772616e74506c6174666f726d3a206475706c6963617465206772616e7449646044820152fd5b60405162461bcd60e51b815260206004820152602d60248201527f4772616e74506c6174666f726d3a20646561646c696e65206d7573742062652060448201526c696e207468652066757475726560981b6064820152608490fd5b60405162461bcd60e51b815260206004820152602c60248201527f4772616e74506c6174666f726d3a207072697a6520736c6f7473206d7573742060448201526b189948195e1858dd1b1e480d60a21b6064820152608490fd5b60405162461bcd60e51b815260206004820152602660248201527f4772616e74506c6174666f726d3a206772616e74207072697a65206d7573742060448201526506265203e20360d41b6064820152608490fd5b60405162461bcd60e51b815260206004820152601c60248201527f4772616e74506c6174666f726d3a20656d707479206772616e744964000000006044820152606490fd5b50604051636eb1769f60e11b81526001600160a01b038d166004820152306024820152959893978d968b969192918e91602081604481855afa9081156117da579084918b91611834575b50106117e5576040516370a0823160e01b815260048101869052602081602481855afa9081156117da579084918b916117a5575b5010611758576040516323b872dd60e01b81526001600160a01b0392909216600483015230602483015260448201839052602090829060649082908c905af190811561174d57889161172e575b50156116d75788516040519060a082018281106001600160401b038211176116c3578961142f9392600492604052898452602084019088825260408501908152606085019187835260406080870194600186528d815260056020522095518655600186019060018060a01b039051166001600160601b0360a01b82541617905551600285015551600384015551151591019060ff801983541691151516179055565b865b825180518210156115d35787898d61149e856114968f9661148e8361145781809461332c565b516040516114846020828180820195805191829101875e81018d838201520301601f1981018352826130d9565b519020995161332c565b51965161332c565b51925161332c565b5190604051936114ad856130be565b858552602085018c8152604086019182526060860192835260808601938452604060a087019580875288815260066020522095518655516001860155516002850155516003840155600483019051908151916001600160401b0383116115bf57600160401b83116115bf578154838355838f828210611595575b505050602001908d5260208d208d5b8381106115815750505050600193929160056115629251151591019060ff801983541691151516179055565b61156d828a5161332c565b51908a52600960205260408a205501611431565b600190602084519401938184015501611536565b8481526020812092830192860191505b8282106115b457859150611527565b81556001018f6115a5565b634e487b7160e01b8e52604160045260248efd5b505088868960208a9751935195519251915193604051918183925191829101835e8101898152039020946040519460a08601918652602086015260a06040860152825180915260c0850190602060c08260051b88010194019189905b828210611698575050505083926116738361168193867f9b39d6be73ccca572787b843fcb9ea941b0946d7268ded8026d836c567ce305a9896036060870152613340565b908382036080850152613340565b0390a360015f5160206134405f395f51905f525580f35b909192946020806116b560019360bf198c8203018652895161313f565b97019201920190929161162f565b634e487b7160e01b8a52604160045260248afd5b60405162461bcd60e51b815260206004820152602960248201527f4772616e74506c6174666f726d3a207072697a6520706f6f6c207472616e7366604482015268195c8819985a5b195960ba1b6064820152608490fd5b611747915060203d6020116103f5576103e781836130d9565b8b61138d565b6040513d8a823e3d90fd5b60405162461bcd60e51b815260206004820152603260248201525f5160206134005f395f51905f526044820152711b98d948199bdc881c1c9a5e99481c1bdbdb60721b6064820152608490fd5b9150506020813d6020116117d2575b816117c1602093836130d9565b81010312610482578390518e611340565b3d91506117b4565b6040513d8c823e3d90fd5b60405162461bcd60e51b815260206004820152603460248201525f5160206134605f395f51905f526044820152731dd85b98d948199bdc881c1c9a5e99481c1bdbdb60621b6064820152608490fd5b9150506020813d602011611861575b81611850602093836130d9565b81010312610482578390518e61130c565b3d9150611843565b60405162461bcd60e51b815260206004820152602260248201527f4772616e74506c6174666f726d3a2067616c6120616c72656164792065786973604482015261747360f01b6064820152608490fd5b60405162461bcd60e51b815260206004820152602760248201527f4772616e74506c6174666f726d3a207469636b6574207072696365206d7573746044820152660206265203e20360cc1b6064820152608490fd5b60405162461bcd60e51b815260206004820152602f60248201527f4772616e74506c6174666f726d3a206c656e677468206d69736d61746368206760448201526e72616e74732f646561646c696e657360881b6064820152608490fd5b60405162461bcd60e51b815260206004820152602b60248201527f4772616e74506c6174666f726d3a206c656e677468206d69736d61746368206760448201526a72616e74732f736c6f747360a81b6064820152608490fd5b60405162461bcd60e51b815260206004820152602c60248201527f4772616e74506c6174666f726d3a206c656e677468206d69736d61746368206760448201526b72616e74732f7072697a657360a01b6064820152608490fd5b60405162461bcd60e51b815260206004820152601860248201527f4772616e74506c6174666f726d3a206e6f206772616e747300000000000000006044820152606490fd5b60405162461bcd60e51b815260206004820152601b60248201527f4772616e74506c6174666f726d3a20656d7074792067616c61496400000000006044820152606490fd5b83356001600160401b038111611ae457820136601f82011215611ae457602091611ad983923690848135910161326f565b815201930192610f55565b8e80fd5b8c80fd5b83356001600160401b038111611b2857820136601f82011215611b2857602091611b1d8392369084813591016130fa565b815201930192610ef7565b8f80fd5b8d80fd5b8b80fd5b8a80fd5b8780fd5b8580fd5b8380fd5b50346101b357806003193601126101b3577f00000000000000000000000000000000000000000000000000000000000000006001600160a01b03163003611b9c5760206040515f5160206134205f395f51905f528152f35b63703e46dd60e11b8152600490fd5b50346101b35760203660031901126101b3576004356001600160401b038111610bb957611bdc903690600401612fc4565b90611be56132bb565b82546001546040516001600160a01b03928316949290911690602081019083858337611c246020828681018a838201520301601f1981018352826130d9565b51902093604051868152611c396020826130d9565b60208151910120851461207a578486526003602052604086209160ff6002840154161561202b5782548015611fdb57604051636eb1769f60e11b8152336004820152306024820152602081604481875afa801561048e5782918a91611fa6575b5010611f4e576040516370a0823160e01b8152336004820152602081602481875afa801561048e5782918a91611f19575b5010611ec1576040516323b872dd60e01b81523360048201526001600160a01b03929092166024830152604482015290602090829060649082908a905af1908115611eb6578691611e97575b5015611e4757335f9081526004602052604090207fffa5088d5660bf54f1f4d68628cc152d5cd6569854c3a92de6b47a720a12f60893611e0f929091611dfd91611d7e9160ff60038201541680611e39575b15611e2f5760026001910154915b01549061330b565b9560405190611d8c8261308f565b81526003602082016001815260408301898152611de1606085019260018452611dc53360018060a01b03165f52600460205260405f2090565b95518655511515600186019060ff801983541691151516179055565b51600284015551151591019060ff801983541691151516179055565b6040519260408452604084019161318c565b9260208201528033930390a260015f5160206134405f395f51905f525580f35b5060014291611d76565b506002810154421115611d68565b60405162461bcd60e51b815260206004820152602260248201527f4772616e74506c6174666f726d3a20666565207472616e73666572206661696c604482015261195960f21b6064820152608490fd5b611eb0915060203d6020116103f5576103e781836130d9565b5f611d16565b6040513d88823e3d90fd5b60405162461bcd60e51b815260206004820152603860248201525f5160206134005f395f51905f5260448201527f6e636520666f7220737562736372697074696f6e2066656500000000000000006064820152608490fd5b9150506020813d602011611f46575b81611f35602093836130d9565b81010312610482578190515f611cca565b3d9150611f28565b60405162461bcd60e51b815260206004820152603a60248201525f5160206134605f395f51905f5260448201527f77616e636520666f7220737562736372697074696f6e206665650000000000006064820152608490fd5b9150506020813d602011611fd3575b81611fc2602093836130d9565b81010312610482578190515f611c99565b3d9150611fb5565b60405162461bcd60e51b815260206004820152602260248201527f4772616e74506c6174666f726d3a20706c616e20646f6573206e6f74206578696044820152611cdd60f21b6064820152608490fd5b60405162461bcd60e51b815260206004820152602160248201527f4772616e74506c6174666f726d3a20706c616e206973206e6f742061637469766044820152606560f81b6064820152608490fd5b60405162461bcd60e51b815260206004820152601e60248201527f4772616e74506c6174666f726d3a20696e76616c696420506c616e20494400006044820152606490fd5b5060403660031901126101b3576120d4613007565b906024356001600160401b038111610bb95736602382011215610bb9576121059036906024816004013591016130fa565b916001600160a01b037f000000000000000000000000000000000000000000000000000000000000000016308114908115612293575b506122845761215560018060a01b0360025416331461320c565b6040516352d1902d60e01b8152926001600160a01b0382169190602085600481865afa8095859661224c575b5061219a57634c9c8ce360e01b84526004839052602484fd5b9091845f5160206134205f395f51905f52810361223a5750823b15612228575f5160206134205f395f51905f5280546001600160a01b031916821790557fbc7cd75a20ee27fd9adebab32041f755214dbc6bffa90cc0225b39da2e5c2d3b8480a280511561220f5761220b91613373565b5080f35b5050346122195780f35b63b398979f60e01b8152600490fd5b634c9c8ce360e01b8452600452602483fd5b632a87526960e21b8552600452602484fd5b9095506020813d60201161227c575b81612268602093836130d9565b810103126122785751945f612181565b8480fd5b3d915061225b565b63703e46dd60e11b8252600482fd5b5f5160206134205f395f51905f52546001600160a01b0316141590505f61213b565b50346101b35760603660031901126101b3576004356001600160401b038111610bb9576122e6903690600401612fc4565b9190602435926044359361230560018060a01b0360025416331461320c565b81156125655780156125205784156124cf5760405160208101908385833761234060208286810189838201520301601f1981018352826130d9565b51902094858552600360205260ff60026040872001541661247f5760405185815261236c6020826130d9565b60208151910120861461243a5760405195606087018781106001600160401b03821117612426579660026123fe927f6c302e47635255da86ba61cb7dee90680396328bf52ee801cbc8eedfb58471d19899604052858352602083018581526040840191600183528b52600360205260408b209351845551600184015551151591019060ff801983541691151516179055565b61241560405194859460608652606086019161318c565b91602084015260408301520390a180f35b634e487b7160e01b87526041600452602487fd5b60405162461bcd60e51b815260206004820152601d60248201527f4772616e74506c6174666f726d3a20696e76616c696420706c616e49640000006044820152606490fd5b60405162461bcd60e51b815260206004820152602260248201527f4772616e74506c6174666f726d3a20706c616e20616c72656164792065786973604482015261747360f01b6064820152608490fd5b60405162461bcd60e51b815260206004820152602360248201527f4772616e74506c6174666f726d3a206475726174696f6e206d7573742062652060448201526203e20360ec1b6064820152608490fd5b60405162461bcd60e51b815260206004820152601e60248201527f4772616e74506c6174666f726d3a20666565206d757374206265203e203000006044820152606490fd5b60405162461bcd60e51b815260206004820152601b60248201527f4772616e74506c6174666f726d3a20656d70747920706c616e496400000000006044820152606490fd5b50346101b35760403660031901126101b3576125c4613007565b6125cc612ff1565b5f5160206134805f395f51905f52549160ff8360401c1615926001600160401b038116801590816127c3575b60011490816127b9575b1590816127b0575b506127a15767ffffffffffffffff1981166001175f5160206134805f395f51905f525583612775575b506001600160a01b0316908115612730576001600160a01b03169081156126eb576001600160601b0360a01b8454161783556001600160601b0360a01b6001541617600155336001600160601b0360a01b60025416176002556126935780f35b68ff0000000000000000195f5160206134805f395f51905f5254165f5160206134805f395f51905f52557fc7f505b2f371ae2175ee4913f4499e1f2633a7b5936321eed1cdaeb6115181d2602060405160018152a180f35b60405162461bcd60e51b815260206004820152601c60248201527f4772616e74506c6174666f726d3a207a65726f207472656173757279000000006044820152606490fd5b60405162461bcd60e51b815260206004820152601860248201527f4772616e74506c6174666f726d3a207a65726f207573646300000000000000006044820152606490fd5b68ffffffffffffffffff191668010000000000000001175f5160206134805f395f51905f52555f612633565b63f92ee8a960e01b8552600485fd5b9050155f61260a565b303b159150612602565b8591506125f8565b50346101b35760403660031901126101b35760406127e7612ff1565b9160043581526007602052209060018060a01b03165f52602052602060ff60405f2054166040519015158152f35b50346101b357806003193601126101b357546040516001600160a01b039091168152602090f35b50346101b35760203660031901126101b3576004356001600160401b038111610bb95761286d903690600401612fc4565b6128946020604051838194838301968737810186838201520301601f1981018352826130d9565b5190208152600a60205260408120604051908160208254918281520190819285526020852090855b81811061291357505050826128d29103836130d9565b604051928392602084019060208552518091526040840192915b8181106128fa575050500390f35b82518452859450602093840193909201916001016128ec565b82548452602090930192600192830192016128bc565b50346101b35760403660031901126101b3576004356001600160401b038111610bb95761295a903690600401612fc4565b6024356001600160401b038111611b4057612979903690600401612fc4565b90338552600460205261299d6040862060ff6003820154169081610b3c57506131ac565b6040516020810190838383376129c66020828681018a838201520301601f1981018352826130d9565b5190206040516020810190858783376129f26020828881018b838201520301601f1981018352826130d9565b51902081875260066020526040872060018101548015612c6d578203612c13576002810154421015612bc2576005015460ff16612b6f578652600760209081526040808820335f908152925290205460ff1615612b3357808652600860209081526040808820335f908152925290205460ff16612ad8578552600860209081526040808720335f908152925290819020805460ff19166001179055519182918190833781015f81520390209181604051928392833781015f815203902033917fc1374745905dad8e1d50dbde87d65664a74c57439b50c65568bd4eb554b080248480a480f35b60405162461bcd60e51b815260206004820152602d60248201527f4772616e74506c6174666f726d3a20616c7265616479206170706c696564206660448201526c1bdc881d1a1a5cc819dc985b9d609a1b6064820152608490fd5b60405162461bcd60e51b8152602060048201526014602482015273105c1c1b1e48199bdc8819d85b1848199a5c9cdd60621b6044820152606490fd5b60405162461bcd60e51b815260206004820152602560248201527f4772616e74506c6174666f726d3a206772616e7420616c72656164792072656c60448201526419585cd95960da1b6064820152608490fd5b60405162461bcd60e51b8152602060048201526024808201527f4772616e74506c6174666f726d3a206772616e7420646561646c696e652070616044820152631cdcd95960e21b6064820152608490fd5b60405162461bcd60e51b815260206004820152602c60248201527f4772616e74506c6174666f726d3a206772616e7420646f6573206e6f7420626560448201526b6c6f6e6720746f2067616c6160a01b6064820152608490fd5b60405162461bcd60e51b815260206004820152601e60248201527f4772616e74506c6174666f726d3a206772616e74206e6f7420666f756e6400006044820152606490fd5b50346101b357806003193601126101b357612ccb6132bb565b335f908152600460205260409020600281015490814211159081612dd0575b5015612d7357612d3a90600360405191612d038361308f565b848352602083019085825260408401908152611de16060850192878452611dc53360018060a01b03165f52600460205260405f2090565b337f71215198e3f86c24dc3af6d0d7f84d0095e5ee736aa56daf9927fae51935e95d8280a260015f5160206134405f395f51905f525580f35b60405162461bcd60e51b815260206004820152602f60248201527f4772616e74506c6174666f726d3a206e6f20616374697665207375627363726960448201526e1c1d1a5bdb881d1bc818d85b98d95b608a1b6064820152608490fd5b60ff915060030154165f612cea565b50346101b3576040612df03661304d565b939190612e1960208551838194838301968737810186838201520301601f1981018352826130d9565b51902081526007602052209060018060a01b03165f52602052602060ff60405f2054166040519015158152f35b5034610482576060366003190112610482576004356001600160401b03811161048257612e77903690600401612fc4565b612e7f612ff1565b906044356001600160401b03811161048257612e9f90369060040161301d565b9091612ea96132bb565b5f546001600160a01b03169473__$1a26d37012a8629845858a78ef6a59bb5a$__9490853b156104825760405163265d439560e21b815260056004820152600660248201526009604482015260648101979097526001600160a01b03909116608487015260e060a487015285939291602091612f299160e487019161318c565b8481036003190160c48601528281520191905f905b808210612f8f575050509181805f9403915af48015612f8457612f71575b5060015f5160206134405f395f51905f525580f35b612f7d91505f906130d9565b5f5f612f5c565b6040513d5f823e3d90fd5b919350918335906001600160a01b03821682036104825760208091600193848060a01b03168152019401920185939291612f3e565b9181601f84011215610482578235916001600160401b038311610482576020838186019501011161048257565b602435906001600160a01b038216820361048257565b600435906001600160a01b038216820361048257565b9181601f84011215610482578235916001600160401b038311610482576020808501948460051b01011161048257565b604060031982011261048257600435906001600160401b0382116104825761307791600401612fc4565b90916024356001600160a01b03811681036104825790565b608081019081106001600160401b038211176130aa57604052565b634e487b7160e01b5f52604160045260245ffd5b60c081019081106001600160401b038211176130aa57604052565b90601f801991011681019081106001600160401b038211176130aa57604052565b9291926001600160401b0382116130aa5760405191613123601f8201601f1916602001846130d9565b829481845281830111610482578281602093845f960137010152565b805180835260209291819084018484015e5f828201840152601f01601f1916010190565b8054821015613178575f5260205f2001905f90565b634e487b7160e01b5f52603260045260245ffd5b908060209392818452848401375f828201840152601f01601f1916010190565b156131b357565b60405162461bcd60e51b815260206004820152602b60248201527f4772616e74506c6174666f726d3a20616374697665207375627363726970746960448201526a1bdb881c995c5d5a5c995960aa1b6064820152608490fd5b1561321357565b60405162461bcd60e51b815260206004820152601860248201527f4772616e74506c6174666f726d3a206e6f74206f776e657200000000000000006044820152606490fd5b6001600160401b0381116130aa5760051b60200190565b92919061327b81613258565b9361328960405195866130d9565b602085838152019160051b810192831161048257905b8282106132ab57505050565b813581526020918201910161329f565b60025f5160206134405f395f51905f5254146132e45760025f5160206134405f395f51905f5255565b633ee5aeb560e01b5f5260045ffd5b90816020910312610482575180151581036104825790565b9190820180921161331857565b634e487b7160e01b5f52601160045260245ffd5b80518210156131785760209160051b010190565b90602080835192838152019201905f5b81811061335d5750505090565b8251845260209384019390920191600101613350565b905f8091602081519101845af480806133ec575b156133a75750506040513d81523d5f602083013e60203d82010160405290565b156133cc57639996b31560e01b5f9081526001600160a01b0391909116600452602490fd5b3d156133dd576040513d5f823e3d90fd5b63d6bda27560e01b5f5260045ffd5b503d1515806133875750813b151561338756fe4772616e74506c6174666f726d3a20696e73756666696369656e742062616c61360894a13ba1a3210667c828492db98dca3e2076cc3735a920a3ca505d382bbc9b779b17422d0df92223018b32b4d1fa46e071723d6817e2486d003becc55f004772616e74506c6174666f726d3a20696e73756666696369656e7420616c6c6ff0c57e16840df040f15088dc2f81fe391c3923bec73e23a9662efc9c229c6a00a26469706673582212200bdf6129ec892aa5456ddaf08463e63d51b54965ce23d77372cc9eea14662f8064736f6c634300081c0033f0c57e16840df040f15088dc2f81fe391c3923bec73e23a9662efc9c229c6a00",
  "linkReferences": {
    "project/contracts/GrantPlatformLogic.sol": {
      "GrantPlatformLogic": [
        {
          "length": 20,
          "start": 12194
        }
      ]
    }
  },
  "deployedLinkReferences": {
    "project/contracts/GrantPlatformLogic.sol": {
      "GrantPlatformLogic": [
        {
          "length": 20,
          "start": 11959
        }
      ]
    }
  },
  "immutableReferences": {
    "862": [
      {
        "length": 32,
        "start": 6999
      },
      {
        "length": 32,
        "start": 8464
      }
    ]
  },
  "inputSourceName": "project/contracts/GrantPlatform.sol",
  "buildInfoId": "solc-0_8_28-2ff53e496aaca0c3bcb5f9e35b21585cf001679d"
}