{
  "_format": "hh3-artifact-1",
  "contractName": "GrantPlatform",
  "sourceName": "contracts/GrantPlatform.sol",
  "abi": [
    {
      "inputs": [],
      "stateMutability": "nonpayable",
      "type": "constructor"
    },
    {
      "inputs": [
        {
          "internalType": "address",
          "name": "target",
          "type": "address"
        }
      ],
      "name": "AddressEmptyCode",
      "type": "error"
    },
    {
      "inputs": [
        {
          "internalType": "address",
          "name": "implementation",
          "type": "address"
        }
      ],
      "name": "ERC1967InvalidImplementation",
      "type": "error"
    },
    {
      "inputs": [],
      "name": "ERC1967NonPayable",
      "type": "error"
    },
    {
      "inputs": [],
      "name": "FailedCall",
      "type": "error"
    },
    {
      "inputs": [],
      "name": "InvalidInitialization",
      "type": "error"
    },
    {
      "inputs": [],
      "name": "NotInitializing",
      "type": "error"
    },
    {
      "inputs": [],
      "name": "ReentrancyGuardReentrantCall",
      "type": "error"
    },
    {
      "inputs": [],
      "name": "UUPSUnauthorizedCallContext",
      "type": "error"
    },
    {
      "inputs": [
        {
          "internalType": "bytes32",
          "name": "slot",
          "type": "bytes32"
        }
      ],
      "name": "UUPSUnsupportedProxiableUUID",
      "type": "error"
    },
    {
      "anonymous": false,
      "inputs": [
        {
          "indexed": true,
          "internalType": "string",
          "name": "galaId",
          "type": "string"
        },
        {
          "indexed": true,
          "internalType": "address",
          "name": "organiser",
          "type": "address"
        },
        {
          "indexed": false,
          "internalType": "uint256",
          "name": "ticketPrice",
          "type": "uint256"
        },
        {
          "indexed": false,
          "internalType": "uint256",
          "name": "totalPrize",
          "type": "uint256"
        },
        {
          "indexed": false,
          "internalType": "string[]",
          "name": "grantIds",
          "type": "string[]"
        },
        {
          "indexed": false,
          "internalType": "uint256[]",
          "name": "grantPrizes",
          "type": "uint256[]"
        },
        {
          "indexed": false,
          "internalType": "uint256[]",
          "name": "grantDeadlines",
          "type": "uint256[]"
        }
      ],
      "name": "GalaPublished",
      "type": "event"
    },
    {
      "anonymous": false,
      "inputs": [
        {
          "indexed": true,
          "internalType": "string",
          "name": "grantId",
          "type": "string"
        },
        {
          "indexed": true,
          "internalType": "string",
          "name": "galaId",
          "type": "string"
        },
        {
          "indexed": true,
          "internalType": "address",
          "name": "applicant",
          "type": "address"
        }
      ],
      "name": "GrantApplied",
      "type": "event"
    },
    {
      "anonymous": false,
      "inputs": [
        {
          "indexed": false,
          "internalType": "uint64",
          "name": "version",
          "type": "uint64"
        }
      ],
      "name": "Initialized",
      "type": "event"
    },
    {
      "anonymous": false,
      "inputs": [
        {
          "indexed": false,
          "internalType": "string",
          "name": "planId",
          "type": "string"
        },
        {
          "indexed": false,
          "internalType": "uint256",
          "name": "fee",
          "type": "uint256"
        },
        {
          "indexed": false,
          "internalType": "uint256",
          "name": "duration",
          "type": "uint256"
        }
      ],
      "name": "PlanAdded",
      "type": "event"
    },
    {
      "anonymous": false,
      "inputs": [
        {
          "indexed": true,
          "internalType": "address",
          "name": "user",
          "type": "address"
        },
        {
          "indexed": false,
          "internalType": "string",
          "name": "planId",
          "type": "string"
        },
        {
          "indexed": false,
          "internalType": "uint256",
          "name": "expiresAt",
          "type": "uint256"
        }
      ],
      "name": "Subscribed",
      "type": "event"
    },
    {
      "anonymous": false,
      "inputs": [
        {
          "indexed": true,
          "internalType": "address",
          "name": "user",
          "type": "address"
        }
      ],
      "name": "SubscriptionCancelled",
      "type": "event"
    },
    {
      "anonymous": false,
      "inputs": [
        {
          "indexed": true,
          "internalType": "address",
          "name": "user",
          "type": "address"
        },
        {
          "indexed": false,
          "internalType": "uint256",
          "name": "newExpiresAt",
          "type": "uint256"
        }
      ],
      "name": "SubscriptionRenewed",
      "type": "event"
    },
    {
      "anonymous": false,
      "inputs": [
        {
          "indexed": true,
          "internalType": "string",
          "name": "galaId",
          "type": "string"
        },
        {
          "indexed": true,
          "internalType": "address",
          "name": "attendee",
          "type": "address"
        },
        {
          "indexed": false,
          "internalType": "address",
          "name": "organiser",
          "type": "address"
        },
        {
          "indexed": false,
          "internalType": "uint256",
          "name": "amount",
          "type": "uint256"
        }
      ],
      "name": "TicketPurchased",
      "type": "event"
    },
    {
      "anonymous": false,
      "inputs": [
        {
          "indexed": true,
          "internalType": "address",
          "name": "implementation",
          "type": "address"
        }
      ],
      "name": "Upgraded",
      "type": "event"
    },
    {
      "inputs": [],
      "name": "UPGRADE_INTERFACE_VERSION",
      "outputs": [
        {
          "internalType": "string",
          "name": "",
          "type": "string"
        }
      ],
      "stateMutability": "view",
      "type": "function"
    },
    {
      "inputs": [
        {
          "internalType": "string",
          "name": "planId",
          "type": "string"
        },
        {
          "internalType": "uint256",
          "name": "fee",
          "type": "uint256"
        },
        {
          "internalType": "uint256",
          "name": "duration",
          "type": "uint256"
        }
      ],
      "name": "addPlan",
      "outputs": [],
      "stateMutability": "nonpayable",
      "type": "function"
    },
    {
      "inputs": [
        {
          "internalType": "string",
          "name": "galaId",
          "type": "string"
        },
        {
          "internalType": "address",
          "name": "organiserWallet",
          "type": "address"
        }
      ],
      "name": "applyForGala",
      "outputs": [],
      "stateMutability": "nonpayable",
      "type": "function"
    },
    {
      "inputs": [
        {
          "internalType": "string",
          "name": "galaId",
          "type": "string"
        },
        {
          "internalType": "string",
          "name": "grantId",
          "type": "string"
        },
        {
          "internalType": "address",
          "name": "caller",
          "type": "address"
        }
      ],
      "name": "applyForGrant",
      "outputs": [],
      "stateMutability": "nonpayable",
      "type": "function"
    },
    {
      "inputs": [],
      "name": "cancelSubscription",
      "outputs": [],
      "stateMutability": "nonpayable",
      "type": "function"
    },
    {
      "inputs": [
        {
          "internalType": "string",
          "name": "grantId",
          "type": "string"
        },
        {
          "internalType": "address",
          "name": "user",
          "type": "address"
        }
      ],
      "name": "checkGrantApplication",
      "outputs": [
        {
          "internalType": "bool",
          "name": "",
          "type": "bool"
        }
      ],
      "stateMutability": "view",
      "type": "function"
    },
    {
      "inputs": [
        {
          "internalType": "string",
          "name": "galaId",
          "type": "string"
        },
        {
          "internalType": "address",
          "name": "user",
          "type": "address"
        }
      ],
      "name": "checkTicket",
      "outputs": [
        {
          "internalType": "bool",
          "name": "",
          "type": "bool"
        }
      ],
      "stateMutability": "view",
      "type": "function"
    },
    {
      "inputs": [
        {
          "internalType": "bytes32",
          "name": "",
          "type": "bytes32"
        }
      ],
      "name": "escrow",
      "outputs": [
        {
          "internalType": "uint256",
          "name": "",
          "type": "uint256"
        }
      ],
      "stateMutability": "view",
      "type": "function"
    },
    {
      "inputs": [
        {
          "internalType": "string",
          "name": "grantId",
          "type": "string"
        }
      ],
      "name": "escrowBalance",
      "outputs": [
        {
          "internalType": "uint256",
          "name": "",
          "type": "uint256"
        }
      ],
      "stateMutability": "view",
      "type": "function"
    },
    {
      "inputs": [
        {
          "internalType": "string",
          "name": "grantId",
          "type": "string"
        }
      ],
      "name": "escrowDetails",
      "outputs": [
        {
          "internalType": "uint256",
          "name": "",
          "type": "uint256"
        }
      ],
      "stateMutability": "view",
      "type": "function"
    },
    {
      "inputs": [
        {
          "internalType": "bytes32",
          "name": "",
          "type": "bytes32"
        },
        {
          "internalType": "uint256",
          "name": "",
          "type": "uint256"
        }
      ],
      "name": "galaGrants",
      "outputs": [
        {
          "internalType": "bytes32",
          "name": "",
          "type": "bytes32"
        }
      ],
      "stateMutability": "view",
      "type": "function"
    },
    {
      "inputs": [
        {
          "internalType": "bytes32",
          "name": "",
          "type": "bytes32"
        }
      ],
      "name": "galas",
      "outputs": [
        {
          "internalType": "bytes32",
          "name": "galaId",
          "type": "bytes32"
        },
        {
          "internalType": "address",
          "name": "organiser",
          "type": "address"
        },
        {
          "internalType": "uint256",
          "name": "ticketPrice",
          "type": "uint256"
        },
        {
          "internalType": "uint256",
          "name": "galaPrize",
          "type": "uint256"
        },
        {
          "internalType": "bool",
          "name": "published",
          "type": "bool"
        }
      ],
      "stateMutability": "view",
      "type": "function"
    },
    {
      "inputs": [
        {
          "internalType": "string",
          "name": "galaId",
          "type": "string"
        }
      ],
      "name": "getGalaGrants",
      "outputs": [
        {
          "internalType": "bytes32[]",
          "name": "",
          "type": "bytes32[]"
        }
      ],
      "stateMutability": "view",
      "type": "function"
    },
    {
      "inputs": [
        {
          "internalType": "string",
          "name": "galaId",
          "type": "string"
        }
      ],
      "name": "getGalaInfo",
      "outputs": [
        {
          "components": [
            {
              "internalType": "bytes32",
              "name": "galaId",
              "type": "bytes32"
            },
            {
              "internalType": "address",
              "name": "organiser",
              "type": "address"
            },
            {
              "internalType": "uint256",
              "name": "ticketPrice",
              "type": "uint256"
            },
            {
              "internalType": "uint256",
              "name": "galaPrize",
              "type": "uint256"
            },
            {
              "internalType": "bool",
              "name": "published",
              "type": "bool"
            }
          ],
          "internalType": "struct GrantPlatformStorage.Gala",
          "name": "",
          "type": "tuple"
        }
      ],
      "stateMutability": "view",
      "type": "function"
    },
    {
      "inputs": [
        {
          "internalType": "string",
          "name": "grantId",
          "type": "string"
        }
      ],
      "name": "getGrantInfo",
      "outputs": [
        {
          "components": [
            {
              "internalType": "bytes32",
              "name": "grantId",
              "type": "bytes32"
            },
            {
              "internalType": "bytes32",
              "name": "galaId",
              "type": "bytes32"
            },
            {
              "internalType": "uint256",
              "name": "deadline",
              "type": "uint256"
            },
            {
              "internalType": "uint256",
              "name": "prize",
              "type": "uint256"
            },
            {
              "internalType": "uint256[]",
              "name": "prizeSlots",
              "type": "uint256[]"
            },
            {
              "internalType": "bool",
              "name": "released",
              "type": "bool"
            }
          ],
          "internalType": "struct GrantPlatformStorage.Grant",
          "name": "",
          "type": "tuple"
        }
      ],
      "stateMutability": "view",
      "type": "function"
    },
    {
      "inputs": [
        {
          "internalType": "bytes32",
          "name": "",
          "type": "bytes32"
        }
      ],
      "name": "grants",
      "outputs": [
        {
          "internalType": "bytes32",
          "name": "grantId",
          "type": "bytes32"
        },
        {
          "internalType": "bytes32",
          "name": "galaId",
          "type": "bytes32"
        },
        {
          "internalType": "uint256",
          "name": "deadline",
          "type": "uint256"
        },
        {
          "internalType": "uint256",
          "name": "prize",
          "type": "uint256"
        },
        {
          "internalType": "bool",
          "name": "released",
          "type": "bool"
        }
      ],
      "stateMutability": "view",
      "type": "function"
    },
    {
      "inputs": [
        {
          "internalType": "bytes32",
          "name": "",
          "type": "bytes32"
        },
        {
          "internalType": "address",
          "name": "",
          "type": "address"
        }
      ],
      "name": "hasApplied",
      "outputs": [
        {
          "internalType": "bool",
          "name": "",
          "type": "bool"
        }
      ],
      "stateMutability": "view",
      "type": "function"
    },
    {
      "inputs": [
        {
          "internalType": "bytes32",
          "name": "",
          "type": "bytes32"
        },
        {
          "internalType": "address",
          "name": "",
          "type": "address"
        }
      ],
      "name": "hasTicket",
      "outputs": [
        {
          "internalType": "bool",
          "name": "",
          "type": "bool"
        }
      ],
      "stateMutability": "view",
      "type": "function"
    },
    {
      "inputs": [
        {
          "internalType": "address",
          "name": "_usdc",
          "type": "address"
        },
        {
          "internalType": "address",
          "name": "_treasury",
          "type": "address"
        }
      ],
      "name": "initialize",
      "outputs": [],
      "stateMutability": "nonpayable",
      "type": "function"
    },
    {
      "inputs": [
        {
          "internalType": "address",
          "name": "user",
          "type": "address"
        }
      ],
      "name": "isSubscribed",
      "outputs": [
        {
          "internalType": "bool",
          "name": "",
          "type": "bool"
        }
      ],
      "stateMutability": "view",
      "type": "function"
    },
    {
      "inputs": [],
      "name": "owner",
      "outputs": [
        {
          "internalType": "address",
          "name": "",
          "type": "address"
        }
      ],
      "stateMutability": "view",
      "type": "function"
    },
    {
      "inputs": [
        {
          "internalType": "string",
          "name": "planId",
          "type": "string"
        }
      ],
      "name": "planDetails",
      "outputs": [
        {
          "components": [
            {
              "internalType": "uint256",
              "name": "fee",
              "type": "uint256"
            },
            {
              "internalType": "uint256",
              "name": "duration",
              "type": "uint256"
            },
            {
              "internalType": "bool",
              "name": "active_plan",
              "type": "bool"
            }
          ],
          "internalType": "struct GrantPlatformStorage.Plan",
          "name": "",
          "type": "tuple"
        }
      ],
      "stateMutability": "view",
      "type": "function"
    },
    {
      "inputs": [
        {
          "internalType": "bytes32",
          "name": "",
          "type": "bytes32"
        }
      ],
      "name": "plans",
      "outputs": [
        {
          "internalType": "uint256",
          "name": "fee",
          "type": "uint256"
        },
        {
          "internalType": "uint256",
          "name": "duration",
          "type": "uint256"
        },
        {
          "internalType": "bool",
          "name": "active_plan",
          "type": "bool"
        }
      ],
      "stateMutability": "view",
      "type": "function"
    },
    {
      "inputs": [],
      "name": "proxiableUUID",
      "outputs": [
        {
          "internalType": "bytes32",
          "name": "",
          "type": "bytes32"
        }
      ],
      "stateMutability": "view",
      "type": "function"
    },
    {
      "inputs": [
        {
          "internalType": "string",
          "name": "galaId",
          "type": "string"
        },
        {
          "internalType": "string[]",
          "name": "grantIds",
          "type": "string[]"
        },
        {
          "internalType": "uint256",
          "name": "ticketPrice",
          "type": "uint256"
        },
        {
          "internalType": "uint256[]",
          "name": "grantPrizes",
          "type": "uint256[]"
        },
        {
          "internalType": "uint256[][]",
          "name": "grantWinners",
          "type": "uint256[][]"
        },
        {
          "internalType": "address",
          "name": "organiserWallet",
          "type": "address"
        },
        {
          "internalType": "uint256[]",
          "name": "grantDeadlines",
          "type": "uint256[]"
        }
      ],
      "name": "publishGala",
      "outputs": [],
      "stateMutability": "nonpayable",
      "type": "function"
    },
    {
      "inputs": [
        {
          "internalType": "string",
          "name": "grantId",
          "type": "string"
        },
        {
          "internalType": "address",
          "name": "organiserWallet",
          "type": "address"
        },
        {
          "internalType": "address[]",
          "name": "winners",
          "type": "address[]"
        }
      ],
      "name": "releaseGrant",
      "outputs": [],
      "stateMutability": "nonpayable",
      "type": "function"
    },
    {
      "inputs": [
        {
          "internalType": "address",
          "name": "user",
          "type": "address"
        }
      ],
      "name": "renewSubscription",
      "outputs": [],
      "stateMutability": "nonpayable",
      "type": "function"
    },
    {
      "inputs": [
        {
          "internalType": "string",
          "name": "planId",
          "type": "string"
        }
      ],
      "name": "subscribe",
      "outputs": [],
      "stateMutability": "nonpayable",
      "type": "function"
    },
    {
      "inputs": [
        {
          "internalType": "address",
          "name": "",
          "type": "address"
        }
      ],
      "name": "subscriptions",
      "outputs": [
        {
          "internalType": "bytes32",
          "name": "planId",
          "type": "bytes32"
        },
        {
          "internalType": "bool",
          "name": "autopay",
          "type": "bool"
        },
        {
          "internalType": "uint256",
          "name": "expiresAt",
          "type": "uint256"
        },
        {
          "internalType": "bool",
          "name": "active",
          "type": "bool"
        }
      ],
      "stateMutability": "view",
      "type": "function"
    },
    {
      "inputs": [],
      "name": "treasury",
      "outputs": [
        {
          "internalType": "address",
          "name": "",
          "type": "address"
        }
      ],
      "stateMutability": "view",
      "type": "function"
    },
    {
      "inputs": [
        {
          "internalType": "address",
          "name": "newImplementation",
          "type": "address"
        },
        {
          "internalType": "bytes",
          "name": "data",
          "type": "bytes"
        }
      ],
      "name": "upgradeToAndCall",
      "outputs": [],
      "stateMutability": "payable",
      "type": "function"
    },
    {
      "inputs": [],
      "name": "usdc",
      "outputs": [
        {
          "internalType": "contract IERC20",
          "name": "",
          "type": "address"
        }
      ],
      "stateMutability": "view",
      "type": "function"
    },
    {
      "inputs": [
        {
          "internalType": "address",
          "name": "user",
          "type": "address"
        }
      ],
      "name": "userSubscriptionDetails",
      "outputs": [
        {
          "components": [
            {
              "internalType": "bytes32",
              "name": "planId",
              "type": "bytes32"
            },
            {
              "internalType": "bool",
              "name": "autopay",
              "type": "bool"
            },
            {
              "internalType": "uint256",
              "name": "expiresAt",
              "type": "uint256"
            },
            {
              "internalType": "bool",
              "name": "active",
              "type": "bool"
            }
          ],
          "internalType": "struct GrantPlatformStorage.Subscription",
          "name": "",
          "type": "tuple"
        }
      ],
      "stateMutability": "view",
      "type": "function"
    }
  ],
  "bytecode": "0x60a080604052346100e6573060805260017f9b779b17422d0df92223018b32b4d1fa46e071723d6817e2486d003becc55f00555f516020613a055f395f51905f525460ff8160401c166100d7576002600160401b03196001600160401b03821601610084575b60405161391a90816100eb8239608051818181611e65015261241e0152f35b6001600160401b0319166001600160401b039081175f516020613a055f395f51905f525581527fc7f505b2f371ae2175ee4913f4499e1f2633a7b5936321eed1cdaeb6115181d290602090a15f80610065565b63f92ee8a960e01b5f5260045ffd5b5f80fdfe6080806040526004361015610012575f80fd5b5f905f3560e01c9081630184c394146132b9575080630992302214610b8657806319224abf1461313b5780632099f076146130d457806324e9edb014612fa75780632d0505e214612c0f5780633845906f14612b225780633e413bee14612afb57806340ec5c5d14612ab1578063485cc955146128905780634b601340146125c35780634f1ef286146123cd578063507e788814611eb957806352d1902d14611e52578063560732241461110c57806361d027b3146110e357806381225b8814610f485780638da5cb5b14610f1f578063963eadaf14610ed5578063a7e7503214610eab578063aa4f265314610e64578063ab6fbf5914610d60578063ad3cb1cc14610d13578063b92ae87c14610cba578063ba82998a14610bf2578063bb5ad7b314610b8b578063c1cf9d2b14610b86578063ce6304db14610720578063d982b9d2146106bd578063de1f898014610661578063df05ae0c14610618578063e02eb109146101f15763f046395a14610189575f80fd5b346101ee5760203660031901126101ee576080906040906001600160a01b036101b0613363565b16815260046020522080549060ff6001820154169060ff60036002830154920154169160405193845215156020840152604083015215156060820152f35b80fd5b50346101ee5760203660031901126101ee5761020b613363565b610213613700565b81546001546001600160a01b038381165f90815260046020526040902092811693911660ff600384015416156105c45760028301928354610e0f1981019081116105b0574210610561575485526003602090815260408087209051636eb1769f60e11b81526001600160a01b038516600482015230602482015290939181604481895afa908115610556578791610524575b5083548091106104d4576040516370a0823160e01b81526001600160a01b038316600482018190529690602081602481855afa80156104c95783918a91610490575b5010610442576040516323b872dd60e01b81526001600160a01b03938416600482015293909216602484015260448301526020908290606490829089905af1908115610437578591610408575b501561038d578161036f60209260017f0e3bc79b6527253ae333c773455df588f62bcc1ad9726d42dbdc179356232a60955491015490613750565b809155604051908152a260015f5160206138855f395f51905f525580f35b60405162461bcd60e51b815260206004820152604760248201527f4772616e74506c6174666f726d3a2072656e6577616c20666565207472616e7360448201527f666572206661696c6564203a20636865636b20616c6c6f77616e6365206f722060648201526662616c616e636560c81b608482015260a490fd5b61042a915060203d602011610430575b610422818361351e565b810190613738565b5f610334565b503d610418565b6040513d87823e3d90fd5b60405162461bcd60e51b815260206004820152603360248201525f5160206138455f395f51905f526044820152726e636520666f722072656e6577616c2066656560681b6064820152608490fd5b9150506020813d6020116104c1575b816104ac6020938361351e565b810103126104bd578290515f6102e7565b5f80fd5b3d915061049f565b6040513d8b823e3d90fd5b60405162461bcd60e51b815260206004820152603560248201525f5160206138a55f395f51905f5260448201527477616e636520666f722072656e6577616c2066656560581b6064820152608490fd5b90506020813d60201161054e575b8161053f6020938361351e565b810103126104bd57515f6102a5565b3d9150610532565b6040513d89823e3d90fd5b60405162461bcd60e51b815260206004820152602160248201527f4772616e74506c6174666f726d3a20746f6f206561726c7920746f2072656e656044820152607760f81b6064820152608490fd5b634e487b7160e01b87526011600452602487fd5b60405162461bcd60e51b815260206004820152602660248201527f4772616e74506c6174666f726d3a20737562736372697074696f6e206e6f742060448201526561637469766560d01b6064820152608490fd5b50346101ee5760403660031901126101ee57602435906004358152600a602052604081209081548310156101ee57602061065284846135a8565b90549060031b1c604051908152f35b50346101ee5760203660031901126101ee57604060a0916004358152600660205220805490600181015490600281015460ff60056003840154930154169260405194855260208501526040840152606083015215156080820152f35b50346101ee5760203660031901126101ee57604060a0916004358152600560205220805490600180841b0360018201541690600281015460ff60046003840154930154169260405194855260208501526040840152606083015215156080820152f35b50346101ee5761072f3661345c565b919033845260046020526107556040852060ff6003820154169081610b77575b506135f1565b61075d613700565b60018060a01b03845416916040516020810190838383376107916020828681018a838201520301601f19810183528261351e565b5190208086526005602052604086209460ff60048701541615610b325760018601546001600160a01b03828116979116879003610ae357828852600760209081526040808a20335f908152925290205460ff16610a8e5760020154604051636eb1769f60e11b8152336004820152306024820152909590602081604481855afa80156104c95787918a91610a59575b5010610a0e576040516370a0823160e01b8152336004820152602081602481855afa80156104c95787918a916109d9575b5010610990576040516323b872dd60e01b81523360048201526001600160a01b0392909216602483015260448201869052602090829060649082908b905af1908115610556578791610971575b501561091e578552600760209081526040808720335f908152925290819020805460ff19166001179055519182918190833781015f81520390209060405192835260208301527fde0ded16f5710d01be252921f2d53e4857a59c354700b9f754cb911e757868f060403393a360015f5160206138855f395f51905f525580f35b60405162461bcd60e51b815260206004820152602560248201527f4772616e74506c6174666f726d3a207469636b6574207472616e736665722066604482015264185a5b195960da1b6064820152608490fd5b61098a915060203d60201161043057610422818361351e565b5f61089e565b60405162461bcd60e51b815260206004820152602e60248201525f5160206138455f395f51905f5260448201526d1b98d948199bdc881d1a58dad95d60921b6064820152608490fd5b9150506020813d602011610a06575b816109f56020938361351e565b810103126104bd578690515f610851565b3d91506109e8565b60405162461bcd60e51b815260206004820152603060248201525f5160206138a55f395f51905f5260448201526f1dd85b98d948199bdc881d1a58dad95d60821b6064820152608490fd5b9150506020813d602011610a86575b81610a756020938361351e565b810103126104bd578690515f610820565b3d9150610a68565b60405162461bcd60e51b815260206004820152602760248201527f4772616e74506c6174666f726d3a20616c726561647920707572636861736564604482015266081d1a58dad95d60ca1b6064820152608490fd5b60405162461bcd60e51b815260206004820152602160248201527f4772616e74506c6174666f726d3a206f7267616e69736572206d69736d6174636044820152600d60fb1b6064820152608490fd5b60405162461bcd60e51b815260206004820152601d60248201527f4772616e74506c6174666f726d3a2067616c61206e6f7420666f756e640000006044820152606490fd5b6002915001544211155f61074f565b6133bc565b50346101ee576040610b9c3661345c565b939190610bc560208551838194838301968737810186838201520301601f19810183528261351e565b51902081526008602052209060018060a01b03165f52602052602060ff60405f2054166040519015158152f35b50346101ee5760203660031901126101ee576004356001600160401b038111610cb657606091610c28604092369060040161338f565b82848051610c35816134cd565b8281528260208201520152610c6660208551838194838301968737810186838201520301601f19810183528261351e565b5190208152600360205220604051610c7d816134cd565b815491828252604060ff600260018401549360208601948552015416920191151582526040519283525160208301525115156040820152f35b5080fd5b50346101ee5760203660031901126101ee576020906040906001600160a01b03610ce2613363565b168152600483522060ff6003820154169081610d04575b506040519015158152f35b6002915001544211155f610cf9565b50346101ee57806003193601126101ee5750610d5c604051610d3660408261351e565b60058152640352e302e360dc1b6020820152604051918291602083526020830190613584565b0390f35b50346101ee5760203660031901126101ee576004356001600160401b038111610cb65760a091610d96604092369060040161338f565b8260808551610da481613503565b82815282602082015282878201528260608201520152610de060208551838194838301968737810186838201520301601f19810183528261351e565b5190208152600560205220604051610df781613503565b815491828252600180851b036001820154166020830190815260028201549060408401918252608060ff60046003860154956060880196875201541694019315158452604051948552600180871b0390511660208501525160408401525160608301525115156080820152f35b50346101ee5760203660031901126101ee576040606091600435815260036020522080549060ff600260018301549201541690604051928352602083015215156040820152f35b50346101ee5760203660031901126101ee5760406020916004358152600983522054604051908152f35b50346101ee5760403660031901126101ee576040610ef1613379565b9160043581526008602052209060018060a01b03165f52602052602060ff60405f2054166040519015158152f35b50346101ee57806003193601126101ee576002546040516001600160a01b039091168152602090f35b50346101ee5760203660031901126101ee576004356001600160401b038111610cb657610f7990369060040161338f565b8260a0604051610f88816134e8565b828152826020820152826040820152826060820152606060808201520152610fcd6020604051838194838301968737810186838201520301601f19810183528261351e565b519020815260066020526040812060405191610fe8836134e8565b815483526001820154916020840192835260028101549060408501918252600381015460608601908152600482019160405192836020825491828152019187526020872090875b8181106110cd5750505060ff9161104a85600593038661351e565b608089019485520154169260a087019315158452604051956020875260e0870197516020880152516040870152516060860152516080850152519160c060a0850152825180955260206101008501930190945b8086106110b557505082935051151560c08301520390f35b9092602080600192865181520194019501949061109d565b825484526020909301926001928301920161102f565b50346101ee57806003193601126101ee576001546040516001600160a01b039091168152602090f35b50346101ee5760e03660031901126101ee576004356001600160401b038111610cb65761113d90369060040161338f565b6024356001600160401b038111611e4e5761115c90369060040161342c565b9290916064356001600160401b038111611e4a5761117e90369060040161342c565b6084949194356001600160401b038111611e46576111a090369060040161342c565b60a435976001600160a01b03891697919691888a03611e425760c435916001600160401b038311611e3e576111dc6111fb93369060040161342c565b9390946111e7613700565b604051996111f48b6134e8565b369161353f565b88526112068161369d565b96611214604051988961351e565b818852602088019160051b810190368211611e3a5780925b828410611dfa575050505061125390602088019687526040880195604435875236916136b4565b96606087019788526112648161369d565b93611272604051958661351e565b818552602085019160051b810190368211611df65780925b828410611db65750505050906112a8916080870193845236916136b4565b9160a0850192835260018060a01b038954169085515115611d715784515115611d2c5784515187515103611cd25784515183515103611c795784515184515103611c1c57805115611bc75785518a611323602060405180938280830196805191829101885e820190838201520301601f19810183528261351e565b519020808b52600560205260408b20600101549096906001600160a01b0316611b77578a98895b875180518c10156115f7578b61135f91613771565b5151156115b2576113718b8b51613771565b511561155e5760046113848c8851613771565b51510361150457426113978c8951613771565b5111156114a9578c600160406113ae8e8c51613771565b5181516113da6020828180820195805191829101875e810188838201520301601f19810183528261351e565b5190209283815260066020522001546114655760408e8b8152600a60205220805490600160401b821015611450578f9092611420836114489560018098960181556135a8565b81939154915060031b91821b915f19901b19161790556114418d8d51613771565b5190613750565b9a019961134a565b50634e487b7160e01b8f52604160045260248ffd5b606460405162461bcd60e51b815260206004820152602060248201527f4772616e74506c6174666f726d3a206475706c6963617465206772616e7449646044820152fd5b60405162461bcd60e51b815260206004820152602d60248201527f4772616e74506c6174666f726d3a20646561646c696e65206d7573742062652060448201526c696e207468652066757475726560981b6064820152608490fd5b60405162461bcd60e51b815260206004820152602c60248201527f4772616e74506c6174666f726d3a207072697a6520736c6f7473206d7573742060448201526b189948195e1858dd1b1e480d60a21b6064820152608490fd5b60405162461bcd60e51b815260206004820152602660248201527f4772616e74506c6174666f726d3a206772616e74207072697a65206d7573742060448201526506265203e20360d41b6064820152608490fd5b60405162461bcd60e51b815260206004820152601c60248201527f4772616e74506c6174666f726d3a20656d707479206772616e744964000000006044820152606490fd5b50604051636eb1769f60e11b81526001600160a01b038d166004820152306024820152959893978d968b969192918e91602081604481855afa908115611ae8579084918b91611b42575b5010611af3576040516370a0823160e01b815260048101869052602081602481855afa908115611ae8579084918b91611ab3575b5010611a66576040516323b872dd60e01b81526001600160a01b0392909216600483015230602483015260448201839052602090829060649082908c905af1908115611a5b578891611a3c575b50156119e5576117518951600489604051926116dd84613503565b898452602084019088825260408501908152606085019187835260406080870194600186528d815260056020522095518655600186019060018060a01b039051166001600160601b0360a01b82541617905551600285015551600384015551151591019060ff801983541691151516179055565b865b825180518210156118f55787898d6117c0856117b88f966117b083611779818094613771565b516040516117a66020828180820195805191829101875e81018d838201520301601f19810183528261351e565b5190209951613771565b519651613771565b519251613771565b5190604051936117cf856134e8565b858552602085018c8152604086019182526060860192835260808601938452604060a087019580875288815260066020522095518655516001860155516002850155516003840155600483019051908151916001600160401b0383116118e157600160401b83116118e1578154838355838f8282106118b7575b505050602001908d5260208d208d5b8381106118a35750505050600193929160056118849251151591019060ff801983541691151516179055565b61188f828a51613771565b51908a52600960205260408a205501611753565b600190602084519401938184015501611858565b8481526020812092830192860191505b8282106118d657859150611849565b81556001018f6118c7565b634e487b7160e01b8e52604160045260248efd5b505088868960208a9751935195519251915193604051918183925191829101835e8101898152039020946040519460a08601918652602086015260a06040860152825180915260c0850190602060c08260051b88010194019189905b8282106119ba57505050508392611995836119a393867f9b39d6be73ccca572787b843fcb9ea941b0946d7268ded8026d836c567ce305a9896036060870152613785565b908382036080850152613785565b0390a360015f5160206138855f395f51905f525580f35b909192946020806119d760019360bf198c82030186528951613584565b970192019201909291611951565b60405162461bcd60e51b815260206004820152602960248201527f4772616e74506c6174666f726d3a207072697a6520706f6f6c207472616e7366604482015268195c8819985a5b195960ba1b6064820152608490fd5b611a55915060203d60201161043057610422818361351e565b8b6116c2565b6040513d8a823e3d90fd5b60405162461bcd60e51b815260206004820152603260248201525f5160206138455f395f51905f526044820152711b98d948199bdc881c1c9a5e99481c1bdbdb60721b6064820152608490fd5b9150506020813d602011611ae0575b81611acf6020938361351e565b810103126104bd578390518e611675565b3d9150611ac2565b6040513d8c823e3d90fd5b60405162461bcd60e51b815260206004820152603460248201525f5160206138a55f395f51905f526044820152731dd85b98d948199bdc881c1c9a5e99481c1bdbdb60621b6064820152608490fd5b9150506020813d602011611b6f575b81611b5e6020938361351e565b810103126104bd578390518e611641565b3d9150611b51565b60405162461bcd60e51b815260206004820152602260248201527f4772616e74506c6174666f726d3a2067616c6120616c72656164792065786973604482015261747360f01b6064820152608490fd5b60405162461bcd60e51b815260206004820152602760248201527f4772616e74506c6174666f726d3a207469636b6574207072696365206d7573746044820152660206265203e20360cc1b6064820152608490fd5b60405162461bcd60e51b815260206004820152602f60248201527f4772616e74506c6174666f726d3a206c656e677468206d69736d61746368206760448201526e72616e74732f646561646c696e657360881b6064820152608490fd5b60405162461bcd60e51b815260206004820152602b60248201527f4772616e74506c6174666f726d3a206c656e677468206d69736d61746368206760448201526a72616e74732f736c6f747360a81b6064820152608490fd5b60405162461bcd60e51b815260206004820152602c60248201527f4772616e74506c6174666f726d3a206c656e677468206d69736d61746368206760448201526b72616e74732f7072697a657360a01b6064820152608490fd5b60405162461bcd60e51b815260206004820152601860248201527f4772616e74506c6174666f726d3a206e6f206772616e747300000000000000006044820152606490fd5b60405162461bcd60e51b815260206004820152601b60248201527f4772616e74506c6174666f726d3a20656d7074792067616c61496400000000006044820152606490fd5b83356001600160401b038111611df257820136601f82011215611df257602091611de78392369084813591016136b4565b81520193019261128a565b8e80fd5b8c80fd5b83356001600160401b038111611e3657820136601f82011215611e3657602091611e2b83923690848135910161353f565b81520193019261122c565b8f80fd5b8d80fd5b8b80fd5b8a80fd5b8780fd5b8580fd5b8380fd5b50346101ee57806003193601126101ee577f00000000000000000000000000000000000000000000000000000000000000006001600160a01b03163003611eaa5760206040515f5160206138655f395f51905f528152f35b63703e46dd60e11b8152600490fd5b50346101ee5760203660031901126101ee576004356001600160401b038111610cb657611eea90369060040161338f565b90611ef3613700565b82546001546040516001600160a01b03928316949290911690602081019083858337611f326020828681018a838201520301601f19810183528261351e565b51902093604051868152611f4760208261351e565b602081519101208514612388578486526003602052604086209160ff6002840154161561233957825480156122e957604051636eb1769f60e11b8152336004820152306024820152602081604481875afa80156104c95782918a916122b4575b501061225c576040516370a0823160e01b8152336004820152602081602481875afa80156104c95782918a91612227575b50106121cf576040516323b872dd60e01b81523360048201526001600160a01b03929092166024830152604482015290602090829060649082908a905af19081156121c45786916121a5575b501561215557335f9081526004602052604090207fffa5088d5660bf54f1f4d68628cc152d5cd6569854c3a92de6b47a720a12f6089361211d92909161210b9161208c9160ff60038201541680612147575b1561213d5760026001910154915b015490613750565b956040519061209a8261349e565b815260036020820160018152604083018981526120ef6060850192600184526120d33360018060a01b03165f52600460205260405f2090565b95518655511515600186019060ff801983541691151516179055565b51600284015551151591019060ff801983541691151516179055565b604051926040845260408401916135d1565b9260208201528033930390a260015f5160206138855f395f51905f525580f35b5060014291612084565b506002810154421115612076565b60405162461bcd60e51b815260206004820152602260248201527f4772616e74506c6174666f726d3a20666565207472616e73666572206661696c604482015261195960f21b6064820152608490fd5b6121be915060203d60201161043057610422818361351e565b5f612024565b6040513d88823e3d90fd5b60405162461bcd60e51b815260206004820152603860248201525f5160206138455f395f51905f5260448201527f6e636520666f7220737562736372697074696f6e2066656500000000000000006064820152608490fd5b9150506020813d602011612254575b816122436020938361351e565b810103126104bd578190515f611fd8565b3d9150612236565b60405162461bcd60e51b815260206004820152603a60248201525f5160206138a55f395f51905f5260448201527f77616e636520666f7220737562736372697074696f6e206665650000000000006064820152608490fd5b9150506020813d6020116122e1575b816122d06020938361351e565b810103126104bd578190515f611fa7565b3d91506122c3565b60405162461bcd60e51b815260206004820152602260248201527f4772616e74506c6174666f726d3a20706c616e20646f6573206e6f74206578696044820152611cdd60f21b6064820152608490fd5b60405162461bcd60e51b815260206004820152602160248201527f4772616e74506c6174666f726d3a20706c616e206973206e6f742061637469766044820152606560f81b6064820152608490fd5b60405162461bcd60e51b815260206004820152601e60248201527f4772616e74506c6174666f726d3a20696e76616c696420506c616e20494400006044820152606490fd5b5060403660031901126101ee576123e2613363565b906024356001600160401b038111610cb65736602382011215610cb65761241390369060248160040135910161353f565b916001600160a01b037f0000000000000000000000000000000000000000000000000000000000000000163081149081156125a1575b506125925761246360018060a01b03600254163314613651565b6040516352d1902d60e01b8152926001600160a01b0382169190602085600481865afa8095859661255a575b506124a857634c9c8ce360e01b84526004839052602484fd5b9091845f5160206138655f395f51905f5281036125485750823b15612536575f5160206138655f395f51905f5280546001600160a01b031916821790557fbc7cd75a20ee27fd9adebab32041f755214dbc6bffa90cc0225b39da2e5c2d3b8480a280511561251d57612519916137b8565b5080f35b5050346125275780f35b63b398979f60e01b8152600490fd5b634c9c8ce360e01b8452600452602483fd5b632a87526960e21b8552600452602484fd5b9095506020813d60201161258a575b816125766020938361351e565b810103126125865751945f61248f565b8480fd5b3d9150612569565b63703e46dd60e11b8252600482fd5b5f5160206138655f395f51905f52546001600160a01b0316141590505f612449565b50346101ee5760603660031901126101ee576004356001600160401b038111610cb6576125f490369060040161338f565b90602435916044359261261260018060a01b03600254163314613651565b811561284b5780156128065783156127b55760405160208101908385833761264d6020828681018a838201520301601f19810183528261351e565b51902093848652600360205260ff6002604088200154166127655760405186815261267960208261351e565b602081519101208514612720576126f87f6c302e47635255da86ba61cb7dee90680396328bf52ee801cbc8eedfb58471d1956002604051916126ba836134cd565b858352602083018581526040840191600183528b52600360205260408b209351845551600184015551151591019060ff801983541691151516179055565b61270f6040519485946060865260608601916135d1565b91602084015260408301520390a180f35b60405162461bcd60e51b815260206004820152601d60248201527f4772616e74506c6174666f726d3a20696e76616c696420706c616e49640000006044820152606490fd5b60405162461bcd60e51b815260206004820152602260248201527f4772616e74506c6174666f726d3a20706c616e20616c72656164792065786973604482015261747360f01b6064820152608490fd5b60405162461bcd60e51b815260206004820152602360248201527f4772616e74506c6174666f726d3a206475726174696f6e206d7573742062652060448201526203e20360ec1b6064820152608490fd5b60405162461bcd60e51b815260206004820152601e60248201527f4772616e74506c6174666f726d3a20666565206d757374206265203e203000006044820152606490fd5b60405162461bcd60e51b815260206004820152601b60248201527f4772616e74506c6174666f726d3a20656d70747920706c616e496400000000006044820152606490fd5b50346101ee5760403660031901126101ee576128aa613363565b6128b2613379565b5f5160206138c55f395f51905f52549160ff8360401c1615926001600160401b03811680159081612aa9575b6001149081612a9f575b159081612a96575b50612a875767ffffffffffffffff1981166001175f5160206138c55f395f51905f525583612a5b575b506001600160a01b0316908115612a16576001600160a01b03169081156129d1576001600160601b0360a01b8454161783556001600160601b0360a01b6001541617600155336001600160601b0360a01b60025416176002556129795780f35b68ff0000000000000000195f5160206138c55f395f51905f5254165f5160206138c55f395f51905f52557fc7f505b2f371ae2175ee4913f4499e1f2633a7b5936321eed1cdaeb6115181d2602060405160018152a180f35b60405162461bcd60e51b815260206004820152601c60248201527f4772616e74506c6174666f726d3a207a65726f207472656173757279000000006044820152606490fd5b60405162461bcd60e51b815260206004820152601860248201527f4772616e74506c6174666f726d3a207a65726f207573646300000000000000006044820152606490fd5b68ffffffffffffffffff191668010000000000000001175f5160206138c55f395f51905f52555f612919565b63f92ee8a960e01b8552600485fd5b9050155f6128f0565b303b1591506128e8565b8591506128de565b50346101ee5760403660031901126101ee576040612acd613379565b9160043581526007602052209060018060a01b03165f52602052602060ff60405f2054166040519015158152f35b50346101ee57806003193601126101ee57546040516001600160a01b039091168152602090f35b50346101ee5760203660031901126101ee576004356001600160401b038111610cb657612b5390369060040161338f565b612b7a6020604051838194838301968737810186838201520301601f19810183528261351e565b5190208152600a60205260408120604051908160208254918281520190819285526020852090855b818110612bf95750505082612bb891038361351e565b604051928392602084019060208552518091526040840192915b818110612be0575050500390f35b8251845285945060209384019390920191600101612bd2565b8254845260209093019260019283019201612ba2565b50346101ee5760603660031901126101ee576004356001600160401b038111610cb657612c4090369060040161338f565b906024356001600160401b038111611e4e57612c6090369060040161338f565b6044356001600160a01b038116949290859003611e4a573386526004602052612c9a6040872060ff6003820154169081610b7757506135f1565b604051602081019083838337612cc36020828681018b838201520301601f19810183528261351e565b519020604051602081019085878337612cef6020828881018c838201520301601f19810183528261351e565b51902081885260066020526040882060018101548015612f62578203612f08576002810154421015612eb7576005015460ff16612e64578752600760205260408720865f5260205260ff60405f20541615612e2857808752600860205260408720865f5260205260ff60405f205416612dcd578652600860205260408620855f5260205260405f20600160ff1982541617905581604051928392833781015f81520390209181604051928392833781015f8152039020907fc1374745905dad8e1d50dbde87d65664a74c57439b50c65568bd4eb554b080248480a480f35b60405162461bcd60e51b815260206004820152602d60248201527f4772616e74506c6174666f726d3a20616c7265616479206170706c696564206660448201526c1bdc881d1a1a5cc819dc985b9d609a1b6064820152608490fd5b60405162461bcd60e51b8152602060048201526014602482015273105c1c1b1e48199bdc8819d85b1848199a5c9cdd60621b6044820152606490fd5b60405162461bcd60e51b815260206004820152602560248201527f4772616e74506c6174666f726d3a206772616e7420616c72656164792072656c60448201526419585cd95960da1b6064820152608490fd5b60405162461bcd60e51b8152602060048201526024808201527f4772616e74506c6174666f726d3a206772616e7420646561646c696e652070616044820152631cdcd95960e21b6064820152608490fd5b60405162461bcd60e51b815260206004820152602c60248201527f4772616e74506c6174666f726d3a206772616e7420646f6573206e6f7420626560448201526b6c6f6e6720746f2067616c6160a01b6064820152608490fd5b60405162461bcd60e51b815260206004820152601e60248201527f4772616e74506c6174666f726d3a206772616e74206e6f7420666f756e6400006044820152606490fd5b50346101ee57806003193601126101ee57612fc0613700565b335f9081526004602052604090206002810154908142111590816130c5575b50156130685761302f90600360405191612ff88361349e565b8483526020830190858252604084019081526120ef60608501928784526120d33360018060a01b03165f52600460205260405f2090565b337f71215198e3f86c24dc3af6d0d7f84d0095e5ee736aa56daf9927fae51935e95d8280a260015f5160206138855f395f51905f525580f35b60405162461bcd60e51b815260206004820152602f60248201527f4772616e74506c6174666f726d3a206e6f20616374697665207375627363726960448201526e1c1d1a5bdb881d1bc818d85b98d95b608a1b6064820152608490fd5b60ff915060030154165f612fdf565b50346101ee5760406130e53661345c565b93919061310e60208551838194838301968737810186838201520301601f19810183528261351e565b51902081526007602052209060018060a01b03165f52602052602060ff60405f2054166040519015158152f35b50346104bd5760603660031901126104bd576004356001600160401b0381116104bd5761316c90369060040161338f565b613174613379565b906044356001600160401b0381116104bd5761319490369060040161342c565b909161319e613700565b5f546001600160a01b03169473__$1a26d37012a8629845858a78ef6a59bb5a$__9490853b156104bd5760405163265d439560e21b815260056004820152600660248201526009604482015260648101979097526001600160a01b03909116608487015260e060a48701528593929160209161321e9160e48701916135d1565b8481036003190160c48601528281520191905f905b808210613284575050509181805f9403915af4801561327957613266575b5060015f5160206138855f395f51905f525580f35b61327291505f9061351e565b5f5f613251565b6040513d5f823e3d90fd5b919350918335906001600160a01b03821682036104bd5760208091600193848060a01b03168152019401920185939291613233565b346104bd5760203660031901126104bd575f60606132d5613363565b926132df8161349e565b828152826020820152826040820152015260018060a01b03165f526004602052608060405f206040516133118161349e565b81549182825260ff600182015416602083019015158152606060ff6003600285015494604087019586520154169301921515835260405193845251151560208401525160408301525115156060820152f35b600435906001600160a01b03821682036104bd57565b602435906001600160a01b03821682036104bd57565b9181601f840112156104bd578235916001600160401b0383116104bd57602083818601950101116104bd57565b346104bd5760203660031901126104bd576004356001600160401b0381116104bd576133ec90369060040161338f565b613413602060405183819483830196873781015f838201520301601f19810183528261351e565b5190205f526009602052602060405f2054604051908152f35b9181601f840112156104bd578235916001600160401b0383116104bd576020808501948460051b0101116104bd57565b60406003198201126104bd57600435906001600160401b0382116104bd576134869160040161338f565b90916024356001600160a01b03811681036104bd5790565b608081019081106001600160401b038211176134b957604052565b634e487b7160e01b5f52604160045260245ffd5b606081019081106001600160401b038211176134b957604052565b60c081019081106001600160401b038211176134b957604052565b60a081019081106001600160401b038211176134b957604052565b90601f801991011681019081106001600160401b038211176134b957604052565b9291926001600160401b0382116134b95760405191613568601f8201601f19166020018461351e565b8294818452818301116104bd578281602093845f960137010152565b805180835260209291819084018484015e5f828201840152601f01601f1916010190565b80548210156135bd575f5260205f2001905f90565b634e487b7160e01b5f52603260045260245ffd5b908060209392818452848401375f828201840152601f01601f1916010190565b156135f857565b60405162461bcd60e51b815260206004820152602b60248201527f4772616e74506c6174666f726d3a20616374697665207375627363726970746960448201526a1bdb881c995c5d5a5c995960aa1b6064820152608490fd5b1561365857565b60405162461bcd60e51b815260206004820152601860248201527f4772616e74506c6174666f726d3a206e6f74206f776e657200000000000000006044820152606490fd5b6001600160401b0381116134b95760051b60200190565b9291906136c08161369d565b936136ce604051958661351e565b602085838152019160051b81019283116104bd57905b8282106136f057505050565b81358152602091820191016136e4565b60025f5160206138855f395f51905f5254146137295760025f5160206138855f395f51905f5255565b633ee5aeb560e01b5f5260045ffd5b908160209103126104bd575180151581036104bd5790565b9190820180921161375d57565b634e487b7160e01b5f52601160045260245ffd5b80518210156135bd5760209160051b010190565b90602080835192838152019201905f5b8181106137a25750505090565b8251845260209384019390920191600101613795565b905f8091602081519101845af48080613831575b156137ec5750506040513d81523d5f602083013e60203d82010160405290565b1561381157639996b31560e01b5f9081526001600160a01b0391909116600452602490fd5b3d15613822576040513d5f823e3d90fd5b63d6bda27560e01b5f5260045ffd5b503d1515806137cc5750813b15156137cc56fe4772616e74506c6174666f726d3a20696e73756666696369656e742062616c61360894a13ba1a3210667c828492db98dca3e2076cc3735a920a3ca505d382bbc9b779b17422d0df92223018b32b4d1fa46e071723d6817e2486d003becc55f004772616e74506c6174666f726d3a20696e73756666696369656e7420616c6c6ff0c57e16840df040f15088dc2f81fe391c3923bec73e23a9662efc9c229c6a00a264697066735822122085f343bf0da0609a9e61696a827087d7bfa6275266c225dfc9380d741af37d0a64736f6c634300081c0033f0c57e16840df040f15088dc2f81fe391c3923bec73e23a9662efc9c229c6a00",
  "linkReferences": {
    "project/contracts/GrantPlatformLogic.sol": {
      "GrantPlatformLogic": [
        {
          "length": 20,
          "start": 12951
        }
      ]
    }
  },
  "deployedLinkReferences": {
    "project/contracts/GrantPlatformLogic.sol": {
      "GrantPlatformLogic": [
        {
          "length": 20,
          "start": 12716
        }
      ]
    }
  },
  "immutableReferences": {
    "862": [
      {
        "length": 32,
        "start": 7781
      },
      {
        "length": 32,
        "start": 9246
      }
    ]
  },
  "inputSourceName": "project/contracts/GrantPlatform.sol",
  "buildInfoId": "solc-0_8_28-c2d309ca9ca4ee000afd14cf9ac8ca0d1e7843a9"
}